{
  "contractName": "PasswordsManager",
  "abi": [
    {
      "inputs": [],
      "stateMutability": "nonpayable",
      "type": "constructor"
    },
    {
      "inputs": [
        {
          "internalType": "string",
          "name": "username",
          "type": "string"
        },
        {
          "internalType": "string",
          "name": "password",
          "type": "string"
        },
        {
          "internalType": "string",
          "name": "secretkey",
          "type": "string"
        }
      ],
      "name": "addUser",
      "outputs": [],
      "stateMutability": "nonpayable",
      "type": "function"
    },
    {
      "inputs": [],
      "name": "viewUsers",
      "outputs": [
        {
          "internalType": "string[]",
          "name": "",
          "type": "string[]"
        },
        {
          "internalType": "string[]",
          "name": "",
          "type": "string[]"
        },
        {
          "internalType": "string[]",
          "name": "",
          "type": "string[]"
        }
      ],
      "stateMutability": "view",
      "type": "function",
      "constant": true
    },
    {
      "inputs": [
        {
          "internalType": "string",
          "name": "owner",
          "type": "string"
        },
        {
          "internalType": "string",
          "name": "website",
          "type": "string"
        },
        {
          "internalType": "string",
          "name": "username",
          "type": "string"
        },
        {
          "internalType": "string",
          "name": "password",
          "type": "string"
        },
        {
          "internalType": "string",
          "name": "notes",
          "type": "string"
        }
      ],
      "name": "addPassword",
      "outputs": [],
      "stateMutability": "nonpayable",
      "type": "function"
    },
    {
      "inputs": [],
      "name": "viewPasswords",
      "outputs": [
        {
          "internalType": "uint256[]",
          "name": "",
          "type": "uint256[]"
        },
        {
          "internalType": "string[]",
          "name": "",
          "type": "string[]"
        },
        {
          "internalType": "string[]",
          "name": "",
          "type": "string[]"
        },
        {
          "internalType": "string[]",
          "name": "",
          "type": "string[]"
        },
        {
          "internalType": "string[]",
          "name": "",
          "type": "string[]"
        },
        {
          "internalType": "string[]",
          "name": "",
          "type": "string[]"
        }
      ],
      "stateMutability": "view",
      "type": "function",
      "constant": true
    },
    {
      "inputs": [
        {
          "internalType": "uint256",
          "name": "id1",
          "type": "uint256"
        },
        {
          "internalType": "string",
          "name": "website",
          "type": "string"
        },
        {
          "internalType": "string",
          "name": "username",
          "type": "string"
        },
        {
          "internalType": "string",
          "name": "password",
          "type": "string"
        },
        {
          "internalType": "string",
          "name": "notes",
          "type": "string"
        }
      ],
      "name": "updatePassword",
      "outputs": [],
      "stateMutability": "nonpayable",
      "type": "function"
    },
    {
      "inputs": [
        {
          "internalType": "uint256",
          "name": "id1",
          "type": "uint256"
        }
      ],
      "name": "deletePassword",
      "outputs": [],
      "stateMutability": "nonpayable",
      "type": "function"
    }
  ],
  "bytecode": "0x608060405234801561001057600080fd5b506000600a8190555061179f806100286000396000f3fe608060405234801561001057600080fd5b50600436106100625760003560e01c806314ebdb79146100675780638d1b180a1461008757806395c5fed4146100a3578063c3b3863c146100bf578063c48ccb12146100db578063eb5fa55b146100f7575b600080fd5b61006f61011a565b60405161007e93929190610d84565b60405180910390f35b6100a1600480360381019061009c9190610f19565b6103a9565b005b6100bd60048036038101906100b89190611020565b6104fe565b005b6100d960048036038101906100d491906110fd565b61060f565b005b6100f560048036038101906100f0919061112a565b610697565b005b6100ff610798565b604051610111969594939291906112d3565b60405180910390f35b606080606060006001600282805480602002602001604051908101604052809291908181526020016000905b828210156101f25783829060005260206000200180546101659061138d565b80601f01602080910402602001604051908101604052809291908181526020018280546101919061138d565b80156101de5780601f106101b3576101008083540402835291602001916101de565b820191906000526020600020905b8154815290600101906020018083116101c157829003601f168201915b505050505081526020019060010190610146565b50505050925081805480602002602001604051908101604052809291908181526020016000905b828210156102c55783829060005260206000200180546102389061138d565b80601f01602080910402602001604051908101604052809291908181526020018280546102649061138d565b80156102b15780601f10610286576101008083540402835291602001916102b1565b820191906000526020600020905b81548152906001019060200180831161029457829003601f168201915b505050505081526020019060010190610219565b50505050915080805480602002602001604051908101604052809291908181526020016000905b8282101561039857838290600052602060002001805461030b9061138d565b80601f01602080910402602001604051908101604052809291908181526020018280546103379061138d565b80156103845780601f1061035957610100808354040283529160200191610384565b820191906000526020600020905b81548152906001019060200180831161036757829003601f168201915b5050505050815260200190600101906102ec565b505050509050925092509250909192565b6001600a60008282546103bc91906113ed565b925050819055506003600a54908060018154018082558091505060019003906000526020600020016000909190919091505560048590806001815401808255809150506001900390600052602060002001600090919091909150908161042291906115cd565b5060058490806001815401808255809150506001900390600052602060002001600090919091909150908161045791906115cd565b5060068390806001815401808255809150506001900390600052602060002001600090919091909150908161048c91906115cd565b506007829080600181540180825580915050600190039060005260206000200160009091909190915090816104c191906115cd565b506008819080600181540180825580915050600190039060005260206000200160009091909190915090816104f691906115cd565b505050505050565b60098360405161050e91906116db565b908152602001604051809103902060009054906101000a900460ff161561053457600080fd5b60008390806001815401808255809150506001900390600052602060002001600090919091909150908161056891906115cd565b5060018290806001815401808255809150506001900390600052602060002001600090919091909150908161059d91906115cd565b506002819080600181540180825580915050600190039060005260206000200160009091909190915090816105d291906115cd565b5060016009846040516105e591906116db565b908152602001604051809103902060006101000a81548160ff021916908315150217905550505050565b60005b6003805490508110156106935760038181548110610633576106326116f2565b5b90600052602060002001548203610680576040518060200160405280600081525060048281548110610668576106676116f2565b5b90600052602060002001908161067e91906115cd565b505b808061068b90611721565b915050610612565b5050565b60005b6003805490508110156107905785600382815481106106bc576106bb6116f2565b5b90600052602060002001540361077d5784600582815481106106e1576106e06116f2565b5b9060005260206000200190816106f791906115cd565b50836006828154811061070d5761070c6116f2565b5b90600052602060002001908161072391906115cd565b508260078281548110610739576107386116f2565b5b90600052602060002001908161074f91906115cd565b508160088281548110610765576107646116f2565b5b90600052602060002001908161077b91906115cd565b505b808061078890611721565b91505061069a565b505050505050565b606080606080606080600360046005600660076008858054806020026020016040519081016040528092919081815260200182805480156107f857602002820191906000526020600020905b8154815260200190600101908083116107e4575b5050505050955084805480602002602001604051908101604052809291908181526020016000905b828210156108cc57838290600052602060002001805461083f9061138d565b80601f016020809104026020016040519081016040528092919081815260200182805461086b9061138d565b80156108b85780601f1061088d576101008083540402835291602001916108b8565b820191906000526020600020905b81548152906001019060200180831161089b57829003601f168201915b505050505081526020019060010190610820565b50505050945083805480602002602001604051908101604052809291908181526020016000905b8282101561099f5783829060005260206000200180546109129061138d565b80601f016020809104026020016040519081016040528092919081815260200182805461093e9061138d565b801561098b5780601f106109605761010080835404028352916020019161098b565b820191906000526020600020905b81548152906001019060200180831161096e57829003601f168201915b5050505050815260200190600101906108f3565b50505050935082805480602002602001604051908101604052809291908181526020016000905b82821015610a725783829060005260206000200180546109e59061138d565b80601f0160208091040260200160405190810160405280929190818152602001828054610a119061138d565b8015610a5e5780601f10610a3357610100808354040283529160200191610a5e565b820191906000526020600020905b815481529060010190602001808311610a4157829003601f168201915b5050505050815260200190600101906109c6565b50505050925081805480602002602001604051908101604052809291908181526020016000905b82821015610b45578382906000526020600020018054610ab89061138d565b80601f0160208091040260200160405190810160405280929190818152602001828054610ae49061138d565b8015610b315780601f10610b0657610100808354040283529160200191610b31565b820191906000526020600020905b815481529060010190602001808311610b1457829003601f168201915b505050505081526020019060010190610a99565b50505050915080805480602002602001604051908101604052809291908181526020016000905b82821015610c18578382906000526020600020018054610b8b9061138d565b80601f0160208091040260200160405190810160405280929190818152602001828054610bb79061138d565b8015610c045780601f10610bd957610100808354040283529160200191610c04565b820191906000526020600020905b815481529060010190602001808311610be757829003601f168201915b505050505081526020019060010190610b6c565b505050509050955095509550955095509550909192939495565b600081519050919050565b600082825260208201905092915050565b6000819050602082019050919050565b600081519050919050565b600082825260208201905092915050565b60005b83811015610c98578082015181840152602081019050610c7d565b60008484015250505050565b6000601f19601f8301169050919050565b6000610cc082610c5e565b610cca8185610c69565b9350610cda818560208601610c7a565b610ce381610ca4565b840191505092915050565b6000610cfa8383610cb5565b905092915050565b6000602082019050919050565b6000610d1a82610c32565b610d248185610c3d565b935083602082028501610d3685610c4e565b8060005b85811015610d725784840389528151610d538582610cee565b9450610d5e83610d02565b925060208a01995050600181019050610d3a565b50829750879550505050505092915050565b60006060820190508181036000830152610d9e8186610d0f565b90508181036020830152610db28185610d0f565b90508181036040830152610dc68184610d0f565b9050949350505050565b6000604051905090565b600080fd5b600080fd5b600080fd5b600080fd5b7f4e487b7100000000000000000000000000000000000000000000000000000000600052604160045260246000fd5b610e2682610ca4565b810181811067ffffffffffffffff82111715610e4557610e44610dee565b5b80604052505050565b6000610e58610dd0565b9050610e648282610e1d565b919050565b600067ffffffffffffffff821115610e8457610e83610dee565b5b610e8d82610ca4565b9050602081019050919050565b82818337600083830152505050565b6000610ebc610eb784610e69565b610e4e565b905082815260208101848484011115610ed857610ed7610de9565b5b610ee3848285610e9a565b509392505050565b600082601f830112610f0057610eff610de4565b5b8135610f10848260208601610ea9565b91505092915050565b600080600080600060a08688031215610f3557610f34610dda565b5b600086013567ffffffffffffffff811115610f5357610f52610ddf565b5b610f5f88828901610eeb565b955050602086013567ffffffffffffffff811115610f8057610f7f610ddf565b5b610f8c88828901610eeb565b945050604086013567ffffffffffffffff811115610fad57610fac610ddf565b5b610fb988828901610eeb565b935050606086013567ffffffffffffffff811115610fda57610fd9610ddf565b5b610fe688828901610eeb565b925050608086013567ffffffffffffffff81111561100757611006610ddf565b5b61101388828901610eeb565b9150509295509295909350565b60008060006060848603121561103957611038610dda565b5b600084013567ffffffffffffffff81111561105757611056610ddf565b5b61106386828701610eeb565b935050602084013567ffffffffffffffff81111561108457611083610ddf565b5b61109086828701610eeb565b925050604084013567ffffffffffffffff8111156110b1576110b0610ddf565b5b6110bd86828701610eeb565b9150509250925092565b6000819050919050565b6110da816110c7565b81146110e557600080fd5b50565b6000813590506110f7816110d1565b92915050565b60006020828403121561111357611112610dda565b5b6000611121848285016110e8565b91505092915050565b600080600080600060a0868803121561114657611145610dda565b5b6000611154888289016110e8565b955050602086013567ffffffffffffffff81111561117557611174610ddf565b5b61118188828901610eeb565b945050604086013567ffffffffffffffff8111156111a2576111a1610ddf565b5b6111ae88828901610eeb565b935050606086013567ffffffffffffffff8111156111cf576111ce610ddf565b5b6111db88828901610eeb565b925050608086013567ffffffffffffffff8111156111fc576111fb610ddf565b5b61120888828901610eeb565b9150509295509295909350565b600081519050919050565b600082825260208201905092915050565b6000819050602082019050919050565b61124a816110c7565b82525050565b600061125c8383611241565b60208301905092915050565b6000602082019050919050565b600061128082611215565b61128a8185611220565b935061129583611231565b8060005b838110156112c65781516112ad8882611250565b97506112b883611268565b925050600181019050611299565b5085935050505092915050565b600060c08201905081810360008301526112ed8189611275565b905081810360208301526113018188610d0f565b905081810360408301526113158187610d0f565b905081810360608301526113298186610d0f565b9050818103608083015261133d8185610d0f565b905081810360a08301526113518184610d0f565b9050979650505050505050565b7f4e487b7100000000000000000000000000000000000000000000000000000000600052602260045260246000fd5b600060028204905060018216806113a557607f821691505b6020821081036113b8576113b761135e565b5b50919050565b7f4e487b7100000000000000000000000000000000000000000000000000000000600052601160045260246000fd5b60006113f8826110c7565b9150611403836110c7565b925082820190508082111561141b5761141a6113be565b5b92915050565b60008190508160005260206000209050919050565b60006020601f8301049050919050565b600082821b905092915050565b6000600883026114837fffffffffffffffffffffffffffffffffffffffffffffffffffffffffffffffff82611446565b61148d8683611446565b95508019841693508086168417925050509392505050565b6000819050919050565b60006114ca6114c56114c0846110c7565b6114a5565b6110c7565b9050919050565b6000819050919050565b6114e4836114af565b6114f86114f0826114d1565b848454611453565b825550505050565b600090565b61150d611500565b6115188184846114db565b505050565b5b8181101561153c57611531600082611505565b60018101905061151e565b5050565b601f8211156115815761155281611421565b61155b84611436565b8101602085101561156a578190505b61157e61157685611436565b83018261151d565b50505b505050565b600082821c905092915050565b60006115a460001984600802611586565b1980831691505092915050565b60006115bd8383611593565b9150826002028217905092915050565b6115d682610c5e565b67ffffffffffffffff8111156115ef576115ee610dee565b5b6115f9825461138d565b611604828285611540565b600060209050601f8311600181146116375760008415611625578287015190505b61162f85826115b1565b865550611697565b601f19841661164586611421565b60005b8281101561166d57848901518255600182019150602085019450602081019050611648565b8683101561168a5784890151611686601f891682611593565b8355505b6001600288020188555050505b505050505050565b600081905092915050565b60006116b582610c5e565b6116bf818561169f565b93506116cf818560208601610c7a565b80840191505092915050565b60006116e782846116aa565b915081905092915050565b7f4e487b7100000000000000000000000000000000000000000000000000000000600052603260045260246000fd5b600061172c826110c7565b91507fffffffffffffffffffffffffffffffffffffffffffffffffffffffffffffffff820361175e5761175d6113be565b5b60018201905091905056fea26469706673582212200c19ae1dd1f7951faeceede889a951fa973631f14512ca7e1e8a1ba61ded45c364736f6c63430008130033",
  "immutableReferences": {},
  "source": "// SPDX-License-Identifier: MIT\npragma solidity >=0.4.22 <0.9.0;\n\ncontract PasswordsManager {\n\n  string[] _usernames;\n  string[] _passwords;\n  string[] _secretkeys;\n\n  uint[] _ids;\n  string[] _owners;\n  string[] _websitenames;\n  string[] _websiteusernames;\n  string[] _websitepasswords;\n  string[] _websitenotes;\n\n  mapping(string=>bool) _registeredusers;\n  uint id;\n\n  constructor(){\n    id=0;\n  }\n\n  function addUser(string memory username,string memory password,string memory secretkey) public {\n    require(!_registeredusers[username]);\n    \n    _usernames.push(username);\n    _passwords.push(password);\n    _secretkeys.push(secretkey);\n    _registeredusers[username]=true;\n  }\n\n  function viewUsers() public view returns(string[] memory,string[] memory,string[] memory){\n    return (_usernames,_passwords,_secretkeys);\n  }\n\n  function addPassword(string memory owner,string memory website,string memory username,string memory password,string memory notes) public {\n    id+=1;\n    _ids.push(id);\n    _owners.push(owner);\n    _websitenames.push(website);\n    _websiteusernames.push(username);\n    _websitepasswords.push(password);\n    _websitenotes.push(notes);\n  }\n\n  function viewPasswords() public view returns(uint[] memory,string[] memory,string[] memory,string[] memory,string[] memory,string[] memory) {\n    return(_ids,_owners,_websitenames,_websiteusernames,_websitepasswords,_websitenotes);\n  }\n\n  function updatePassword(uint id1,string memory website,string memory username,string memory password, string memory notes) public {\n    uint i;\n\n    for(i=0;i<_ids.length;i++){\n      if(_ids[i]==id1){\n        _websitenames[i]=website;\n        _websiteusernames[i]=username;\n        _websitepasswords[i]=password;\n        _websitenotes[i]=notes;\n      }\n    }\n  }\n\n  function deletePassword(uint id1) public{\n    uint i;\n    for(i=0;i<_ids.length;i++){\n      if (id1==_ids[i]) {\n        _owners[i]=\"\";\n      }\n    }\n  }\n\n}\n",
  "sourcePath": "/Users/ms/Downloads/password-manager-blockchain/contracts/PasswordsManager.sol",
  "compiler": {
    "name": "solc",
    "version": "0.8.19+commit.7dd6d404.Emscripten.clang"
  },
  "schemaVersion": "3.4.16",
  "updatedAt": "2024-03-09T10:13:42.146Z",
  "networkType": "ethereum",
  "devdoc": {
    "kind": "dev",
    "methods": {},
    "version": 1
  },
  "userdoc": {
    "kind": "user",
    "methods": {},
    "version": 1
  }
}